:02000000FFCD32
:101C000011248FEF94E09EBF8DBF94B714BE892F2F
:101C10008D7011F0892F7FD190E89093F20083E9C5
:101C20008093F2009093610081E080936100809145
:101C3000EE0083609093EE008093EE0088E1809345
:101C4000C10086E08093C20080E18093C4008CE0F4
:101C50004CD188249924EE24FF24AA24A39451E093
:101C6000652E712C44EA542E32EA432E2DEC322E8E
:101C700094E9292E29D1813461F426D1182F3BD142
:101C8000123829F1113811F485E001C083E014D134
:101C900010C1823411F484E103C0853419F485E065
:101CA00032D107C1853579F40FD1E82EFF240CD14C
:101CB000082F10E0102F00270E291F29000F111FD9
:101CC0001AD17801F6C0863521F484E01CD180E079
:101CD000DECF843609F08DC0F7D090E0D82ECC242A
:101CE000F3D0C80ED11CF0D0B82EE60100E011E010
:101CF000EBD0F80181938F012197D1F711BC8F2D83
:101D0000992782BD82B586958695930102C0220FE0
:101D1000331F8A95E2F7C40182239323892B51F460
:101D2000F6E4BF1639F4822A932A2FBA82E98FBBD0
:101D300000000000E0D0E5E4BE16E1F417C0F0E0DA
:101D4000EF16F2E0FF0608F0B4C0E1BC0894E11C15
:101D5000F11C8F2D992782BDC050DF4F888180BD37
:101D600084E08FBBE2E0EFBBCF5FD040CC15DD0558
:101D700030F39FC0E114F10449F5809100012091F6
:101D8000010130E0322F222790E0282B392B3093AD
:101D9000450120934401409108018091090190E0A0
:101DA000982F882750E0842B952B909347018093A0
:101DB00046012450304020930801232F33272093DD
:101DC00009018FEF8093000130920101E0E0F1E022
:101DD00011BC808180BDA1BC818180BD8E2F8E0D04
:101DE00081BD5FBA4FBA329681E0E034F80781F7DF
:101DF00060C0843709F04FC067D090E0D82ECC2463
:101E000063D0C80ED11C60D0182F75D01534B1F432
:101E1000E7018601C1BD21968D2F992782BDAFBAFA
:101E200000000000E2E0C030DE0710F08FEF01C0DC
:101E300080B542D00150104069F72AC0E701860101
:101E4000209729F480914401909145011CC0C13034
:101E5000D10529F480914401909145010FC0C8300B
:101E6000D10529F480914601909147010CC0C930F9
:101E7000D10539F48091460190914701892F992726
:101E800002C0FE018491219617D001501040C1F686
:101E9000EC0CFD1C0EC0853739F42DD08EE10CD032
:101EA00083E90AD08AE0F3CE813511F48CE01DD0AD
:101EB00022D080E101D0DECE982F8091C00085FF36
:101EC000FCCF9093C60008958091C00087FFFCCF9F
:101ED0008091C00084FD01C0A8958091C60008953E
:101EE0009AE29A95F1F708950895E0E6F0E098E116
:101EF000908380830895E8DF803219F08CE0F5DF6D
:101F0000FFCF84E1D9CF1F93182FDEDF1150E9F7FF
:101F1000F2DF1F910895282E80E0E7DFE4E0FF273D
:021F2000099422
:021FFA000005E0
:0400000300001C00DD
:00000001FF
