:040000000C94003A22
:1074000011248FEF98E09EBF8DBF84B714BE81FF1B
:10741000F0D18091F20080688093F2008091F200B8
:1074200084608093F2008AE68A95F1F78091F200F9
:1074300080688093F2008091F20080628093F20075
:1074400090E89093610010926100909362008CE448
:107450008093620096BF80E486BF82E08093C00084
:1074600088E18093C10086E08093C20080E1809330
:10747000C40088E893E120E931E0F9013197F1F7A0
:107480000197D9F789E29FD1882499245401EE24E9
:10749000FF2464E9662E51E0252E312C412C512C1D
:1074A00081D1813461F47ED1182F93D1123829F122
:1074B000113811F485E001C083E06CD168C18234D9
:1074C00011F484E103C0853419F485E08AD15FC1E9
:1074D000853579F467D1E82EFF2464D1082F10E0B8
:1074E000102F00270E291F29000F111F72D17801BC
:1074F0004EC1863521F484E074D180E0DECF84363D
:1075000009F0C3C04FD190E0D82ECC244BD1C80E87
:10751000D11C48D1782EE60100E011E043D1F801FA
:1075200081938F012197D1F711BC8F2D992782BDAF
:1075300082B586958695282FD501C401022E04C0F8
:10754000B695A795979587950A94D2F780FD15C0B3
:10755000F6E47F1691F4D201C10104C0880F991F8F
:10756000AA1FBB1F2A95D2F7882A992AAA2ABB2AC2
:107570006FBA82E98FBB000000002BD1E5E47E16D4
:10758000E1F417C0FEEFEF16F3E0FF0608F0FFC0CE
:10759000E1BC0894E11CF11C8F2D992782BDC050DD
:1075A000DF4F888180BD84E08FBBE2E0EFBBCF5F1F
:1075B000D040CC15DD0530F3EAC0E114F10409F048
:1075C0004EC06091000170910101872F90E0982FCB
:1075D0008827262F30E0822B932B90938501809370
:1075E00084014091020150910301852F90E0982F72
:1075F0008827242F30E0822B932B90938701809350
:107600008601209118018091190190E0982F882718
:1076100030E0822B932B90938901809388012091F5
:107620001A0180911B0190E0982F882730E0822B6F
:10763000932B90938B0180938A0160931801709330
:10764000190140931A0150931B018CE080930001B3
:107650006092010110920201FAE3F0930301E0E06D
:10766000F1E011BC808180BD81E081BD818180BD60
:107670008E2F8E0D81BD84EA8FBB82EA8FBB32963E
:1076800081E0E038F80769F782C0843709F071C0FB
:1076900089D090E0D82ECC2485D0C80ED11C82D0C1
:1076A000182F97D01534B9F4E7018601C1BD219692
:1076B0008D2F992782BDE1E0EFBB00000000F3E0D1
:1076C000CE3FDF0710F08FEF01C080B563D00150CF
:1076D000104061F74BC0E7018601209729F48091A3
:1076E0008401909185013CC0C130D10529F480917D
:1076F0008401909185010FC0C230D10529F4809199
:107700008601909187012CC0C330D10539F4809156
:10771000860190918701892F992722C0C831D10510
:1077200029F480918801909189011AC0C931D1054D
:1077300029F48091880190918901EDCFCA31D1055A
:1077400029F480918A0190918B010AC0CB31D10537
:1077500029F480918A0190918B01DDCFFE01849103
:10776000219618D00150104009F0B7CFEC0CFD1C49
:107770000EC0853739F42DD08EE10CD085E90AD0C2
:107780008FE09BCE813511F48CE01DD022D080E1BA
:1077900001D086CE982F8091C00085FFFCCF9093BA
:1077A000C60008958091C00087FFFCCF8091C00083
:1077B00084FD01C0A8958091C600089593E19A9533
:1077C000F1F708950895E0E6F0E098E19083808372
:1077D0000895E8DF803219F08CE0F5DFFFCF84E117
:1077E000D9CF1F93182FDEDF1150E9F7F2DF1F9179
:0E77F0000895282E80E0E7DFECE0FF270994E3
:0277FE00000584
:040000030000740085
:00000001FF
